:020000040000FA
:020000002C28AA
:040002000034003492
:080008000B118B13A40003305F
:10001000A5008519152805191B2885182128850193
:1000200020085F20860085152628850121085F208D
:10003000860005152628850122085F208600851484
:100040002628850123085F2086000514C63081001C
:10005000250883002408090007309F00C63081006E
:10006000831601308600F030850081128111011461
:10007000811401158B178B16831285018601A0014F
:10008000A101A201A301051B5620051BA10A2108FD
:10009000113A0319A101A80A851B5620851BA1034B
:1000A0002108113A0319A101A8034328FF30A60033
:1000B000FF30A700A70B5A28A60B58280800820774
:1000C0007F340D34B7349F34CD34DB34FB340F34FC
:1000D000FF34CF34EF34F8347334BD34F334E334C5
:02400E00103F61
:00000001FF
